# 2019-02-07

#$ 夜

<iframe height='405' width='590' frameborder='0' allowtransparency='true' scrolling='no' src='https://www.strava.com/activities/2130289672/embed/9ca6cd3b091b1f4fdf8b6657f6448346afe8b8f7'></iframe>

## 昼

<iframe height='405' width='590' frameborder='0' allowtransparency='true' scrolling='no' src='https://www.strava.com/activities/2129643933/embed/68d6c8057d07df1b91b37d938cdc624cb4e0e8ae'></iframe>

## UDP

- [UDPプロトコル](http://www.picfun.com/lan08a.html)

イーサーヘッダー(14bytes):

- 宛先MACアドレス: 6 bytes 
- 発信元MACアドレス: 6 bytes
- 08 00 :2bytes

IPヘッダー: (20bytes):

- 45 00 :2bytes
- データ長(ヘッダ含む) : 2bytes
- 識別子:  2bytes
- 00 00 : 2 bytes
- FF 11 : 2 bytes
- チェックサム:  2bytes
- 発信元IP: 4 bytes
- 宛先IP: 4  bytes

UDPヘッダー: (8 Bytes)

- 発信元ポート: 2 byte
- 宛先ポート: 2 btyes
- UDP データ長: 2 bytes (UDPヘッダの8バイトを含む)
- チェックサム: 2 bytes

ユーザーデータ:

- ....

CRC:

- CRCチェックコード: 2 バイト

## tcpdump

- [tcpdump の便利なオプション - Qiita](https://qiita.com/ngyuki/items/969d1efaddb68acb5313)
- [tcpdumpのフィルターのまとめ – 猫型iPS細胞研究所](https://ips.nekotype.com/2182/)

~~~bash
$ sudo tcpdump -i any -X port 10000
tcpdump: verbose output suppressed, use -v or -vv for full protocol decode
listening on any, link-type LINUX_SLL (Linux cooked), capture size 262144 bytes


17:20:34.558444 IP 192.168.56.1.62212 > ubuntu.10000: UDP, length 6
        0x0000:  4500 0022 4407 0000 4011 453d c0a8 3801  E.."D...@.E=..8.
        0x0010:  c0a8 3835 f304 2710 000e 48c8 4a30 3030  ..85..'...H.J000
        0x0020:  310d 0000 0000 0000 0000 0000 0000       1.............
~~~

## 朝

<iframe height='405' width='590' frameborder='0' allowtransparency='true' scrolling='no' src='https://www.strava.com/activities/2129237864/embed/fe19f22cf6263069de94b9f591e3e0bb32f9984e'></iframe>